{
  "_format": "hh-sol-artifact-1",
  "contractName": "SwapMultiHop",
  "sourceName": "contracts/MultiSwapToken.sol",
  "abi": [
    {
      "inputs": [],
      "name": "dai",
      "outputs": [
        {
          "internalType": "address",
          "name": "",
          "type": "address"
        }
      ],
      "stateMutability": "view",
      "type": "function"
    },
    {
      "inputs": [
        {
          "internalType": "uint256",
          "name": "_amountIn",
          "type": "uint256"
        }
      ],
      "name": "swapExactInputMultiHop",
      "outputs": [
        {
          "internalType": "uint256",
          "name": "_amountOut",
          "type": "uint256"
        }
      ],
      "stateMutability": "nonpayable",
      "type": "function"
    },
    {
      "inputs": [
        {
          "internalType": "uint256",
          "name": "_amountOut",
          "type": "uint256"
        },
        {
          "internalType": "uint256",
          "name": "_amountInMaximum",
          "type": "uint256"
        }
      ],
      "name": "swapExactOutputMultiHop",
      "outputs": [
        {
          "internalType": "uint256",
          "name": "_amountIn",
          "type": "uint256"
        }
      ],
      "stateMutability": "nonpayable",
      "type": "function"
    },
    {
      "inputs": [],
      "name": "swapRouter",
      "outputs": [
        {
          "internalType": "contract ISwapRouter",
          "name": "",
          "type": "address"
        }
      ],
      "stateMutability": "view",
      "type": "function"
    },
    {
      "inputs": [],
      "name": "usdc",
      "outputs": [
        {
          "internalType": "address",
          "name": "",
          "type": "address"
        }
      ],
      "stateMutability": "view",
      "type": "function"
    },
    {
      "inputs": [],
      "name": "weth9",
      "outputs": [
        {
          "internalType": "address",
          "name": "",
          "type": "address"
        }
      ],
      "stateMutability": "view",
      "type": "function"
    }
  ],
  "bytecode": "0x608060405234801561001057600080fd5b50610f2c806100206000396000f3fe608060405234801561001057600080fd5b50600436106100625760003560e01c80633e413bee1461006757806350879c1c1461008557806357688eda146100a3578063c31c9c07146100d3578063d05d4cdd146100f1578063f4b9fa7514610121575b600080fd5b61006f61013f565b60405161007c919061081f565b60405180910390f35b61008d610157565b60405161009a919061081f565b60405180910390f35b6100bd60048036038101906100b89190610875565b61016f565b6040516100ca91906108b1565b60405180910390f35b6100db610304565b6040516100e8919061092b565b60405180910390f35b61010b60048036038101906101069190610946565b61031c565b60405161011891906108b1565b60405180910390f35b610129610519565b604051610136919061081f565b60405180910390f35b73a0b86991c6218b36c1d19d4a2e9eb0ce3606eb4881565b73c02aaa39b223fe8d0a0e5c4f27ead9083c756cc281565b600061019173c02aaa39b223fe8d0a0e5c4f27ead9083c756cc2333085610531565b6101c473c02aaa39b223fe8d0a0e5c4f27ead9083c756cc273e592427a0aece92de3edee1f18e0157c0586156484610689565b60006040518060a0016040528073c02aaa39b223fe8d0a0e5c4f27ead9083c756cc2610bb873a0b86991c6218b36c1d19d4a2e9eb0ce3606eb486064736b175474e89094c44da98b954eedeac495271d0f604051602001610229959493929190610a13565b60405160208183030381529060405281526020013373ffffffffffffffffffffffffffffffffffffffff1681526020014281526020018481526020016000815250905073e592427a0aece92de3edee1f18e0157c0586156473ffffffffffffffffffffffffffffffffffffffff1663c04b8d59826040518263ffffffff1660e01b81526004016102b99190610b96565b6020604051808303816000875af11580156102d8573d6000803e3d6000fd5b505050506040513d601f19601f820116820180604052508101906102fc9190610bcd565b915050919050565b73e592427a0aece92de3edee1f18e0157c0586156481565b600061033e73c02aaa39b223fe8d0a0e5c4f27ead9083c756cc2333085610531565b61037173c02aaa39b223fe8d0a0e5c4f27ead9083c756cc273e592427a0aece92de3edee1f18e0157c0586156484610689565b60006040518060a00160405280736b175474e89094c44da98b954eedeac495271d0f606473a0b86991c6218b36c1d19d4a2e9eb0ce3606eb48610bb873c02aaa39b223fe8d0a0e5c4f27ead9083c756cc26040516020016103d6959493929190610a13565b60405160208183030381529060405281526020013373ffffffffffffffffffffffffffffffffffffffff16815260200142815260200185815260200184815250905073e592427a0aece92de3edee1f18e0157c0586156473ffffffffffffffffffffffffffffffffffffffff1663f28c0498826040518263ffffffff1660e01b81526004016104659190610c70565b6020604051808303816000875af1158015610484573d6000803e3d6000fd5b505050506040513d601f19601f820116820180604052508101906104a89190610bcd565b915082821015610512576104e673c02aaa39b223fe8d0a0e5c4f27ead9083c756cc273e592427a0aece92de3edee1f18e0157c058615646000610689565b61051173c02aaa39b223fe8d0a0e5c4f27ead9083c756cc23033858761050c9190610cc1565b610531565b5b5092915050565b736b175474e89094c44da98b954eedeac495271d0f81565b6000808573ffffffffffffffffffffffffffffffffffffffff166323b872dd60e01b86868660405160240161056893929190610cf5565b604051602081830303815290604052907bffffffffffffffffffffffffffffffffffffffffffffffffffffffff19166020820180517bffffffffffffffffffffffffffffffffffffffffffffffffffffffff83818316178352505050506040516105d29190610d68565b6000604051808303816000865af19150503d806000811461060f576040519150601f19603f3d011682016040523d82523d6000602084013e610614565b606091505b509150915081801561064257506000815114806106415750808060200190518101906106409190610db7565b5b5b610681576040517f08c379a000000000000000000000000000000000000000000000000000000000815260040161067890610e41565b60405180910390fd5b505050505050565b6000808473ffffffffffffffffffffffffffffffffffffffff1663095ea7b360e01b85856040516024016106be929190610e61565b604051602081830303815290604052907bffffffffffffffffffffffffffffffffffffffffffffffffffffffff19166020820180517bffffffffffffffffffffffffffffffffffffffffffffffffffffffff83818316178352505050506040516107289190610d68565b6000604051808303816000865af19150503d8060008114610765576040519150601f19603f3d011682016040523d82523d6000602084013e61076a565b606091505b509150915081801561079857506000815114806107975750808060200190518101906107969190610db7565b5b5b6107d7576040517f08c379a00000000000000000000000000000000000000000000000000000000081526004016107ce90610ed6565b60405180910390fd5b5050505050565b600073ffffffffffffffffffffffffffffffffffffffff82169050919050565b6000610809826107de565b9050919050565b610819816107fe565b82525050565b60006020820190506108346000830184610810565b92915050565b600080fd5b6000819050919050565b6108528161083f565b811461085d57600080fd5b50565b60008135905061086f81610849565b92915050565b60006020828403121561088b5761088a61083a565b5b600061089984828501610860565b91505092915050565b6108ab8161083f565b82525050565b60006020820190506108c660008301846108a2565b92915050565b6000819050919050565b60006108f16108ec6108e7846107de565b6108cc565b6107de565b9050919050565b6000610903826108d6565b9050919050565b6000610915826108f8565b9050919050565b6109258161090a565b82525050565b6000602082019050610940600083018461091c565b92915050565b6000806040838503121561095d5761095c61083a565b5b600061096b85828601610860565b925050602061097c85828601610860565b9150509250929050565b60008160601b9050919050565b600061099e82610986565b9050919050565b60006109b082610993565b9050919050565b6109c86109c3826107fe565b6109a5565b82525050565b600062ffffff82169050919050565b60008160e81b9050919050565b60006109f5826109dd565b9050919050565b610a0d610a08826109ce565b6109ea565b82525050565b6000610a1f82886109b7565b601482019150610a2f82876109fc565b600382019150610a3f82866109b7565b601482019150610a4f82856109fc565b600382019150610a5f82846109b7565b6014820191508190509695505050505050565b600081519050919050565b600082825260208201905092915050565b60005b83811015610aac578082015181840152602081019050610a91565b60008484015250505050565b6000601f19601f8301169050919050565b6000610ad482610a72565b610ade8185610a7d565b9350610aee818560208601610a8e565b610af781610ab8565b840191505092915050565b610b0b816107fe565b82525050565b610b1a8161083f565b82525050565b600060a0830160008301518482036000860152610b3d8282610ac9565b9150506020830151610b526020860182610b02565b506040830151610b656040860182610b11565b506060830151610b786060860182610b11565b506080830151610b8b6080860182610b11565b508091505092915050565b60006020820190508181036000830152610bb08184610b20565b905092915050565b600081519050610bc781610849565b92915050565b600060208284031215610be357610be261083a565b5b6000610bf184828501610bb8565b91505092915050565b600060a0830160008301518482036000860152610c178282610ac9565b9150506020830151610c2c6020860182610b02565b506040830151610c3f6040860182610b11565b506060830151610c526060860182610b11565b506080830151610c656080860182610b11565b508091505092915050565b60006020820190508181036000830152610c8a8184610bfa565b905092915050565b7f4e487b7100000000000000000000000000000000000000000000000000000000600052601160045260246000fd5b6000610ccc8261083f565b9150610cd78361083f565b9250828203905081811115610cef57610cee610c92565b5b92915050565b6000606082019050610d0a6000830186610810565b610d176020830185610810565b610d2460408301846108a2565b949350505050565b600081905092915050565b6000610d4282610a72565b610d4c8185610d2c565b9350610d5c818560208601610a8e565b80840191505092915050565b6000610d748284610d37565b915081905092915050565b60008115159050919050565b610d9481610d7f565b8114610d9f57600080fd5b50565b600081519050610db181610d8b565b92915050565b600060208284031215610dcd57610dcc61083a565b5b6000610ddb84828501610da2565b91505092915050565b600082825260208201905092915050565b7f5354460000000000000000000000000000000000000000000000000000000000600082015250565b6000610e2b600383610de4565b9150610e3682610df5565b602082019050919050565b60006020820190508181036000830152610e5a81610e1e565b9050919050565b6000604082019050610e766000830185610810565b610e8360208301846108a2565b9392505050565b7f5341000000000000000000000000000000000000000000000000000000000000600082015250565b6000610ec0600283610de4565b9150610ecb82610e8a565b602082019050919050565b60006020820190508181036000830152610eef81610eb3565b905091905056fea2646970667358221220a440436e09314fcf1b7a1a156a7faf9301949a6222b9ee3ec1f95f772e2c6dc964736f6c63430008110033",
  "linkReferences": {},
  "deployedLinkReferences": {}
}